:100000000C9463000C948B000C948B000C948B006C
:100010000C948B000C948B000C948B000C949D051D
:100020000C9451060C948B000C948B000C948B0058
:100030000C948B000C948B000C948B000C948B0014
:100040000C9453050C948B000C941F060C94F9052A
:100050000C948B000C948B000C948B000C948B00F4
:100060000C948B000C948B000000000024002700EF
:100070002A0000000008000201000003040700003D
:1000800000000000000000000000250028002B00F8
:1000900002000000002300260029000404040404D8
:1000A0000404040202020202020303030303030125
:1000B00002040810204080010204081020010204FC
:1000C00008102000040711241FBECFEFD8E0DEBFC8
:1000D000CDBF23E0A2E3B1E001C01D92A031B20781
:1000E000E1F711E0A0E0B1E0E0E3FBE102C0059040
:1000F0000D92A233B107D9F710E0C3E6D0E004C0F7
:100100002197FE010E94900DC236D107C9F70E94C7
:100110004F070C94960D0C940000A9EEB1E01196D7
:100120008C93119790E0FC01E155FF4FE4911496F8
:10013000EC931497FC01E556FF4FE491F0E0EE0FCD
:10014000FF1FEF56FF4F8591949113969C938E93CA
:1001500012970895833081F028F4813099F082302D
:10016000A9F008958730A9F08830C9F08430B1F43F
:10017000809180008F7D03C0809180008F77809375
:100180008000089584B58F7784BD089584B58F7DF0
:10019000FBCF8091B0008F778093B000089580915D
:1001A000B0008F7DF9CF1F93CF93DF93282F30E0DE
:1001B000F901EE58FF4F8491F901E155FF4FD491B9
:1001C000F901E556FF4FC491CC23A9F0162F8111F8
:1001D0000E94AA00EC2FF0E0EE0FFF1FEA57FF4F3E
:1001E000A591B4918FB7F894EC91111108C0D095F6
:1001F000DE23DC938FBFDF91CF911F910895DE2B1B
:10020000F8CFCF93DF9390E0FC01E155FF4F2491AD
:1002100085569F4FFC0184918823C9F090E0880F98
:10022000991FFC01E859FF4FA591B491FC01EA57D1
:10023000FF4FC591D49161110DC09FB7F8948C9177
:10024000209582238C938881282328839FBFDF9168
:10025000CF910895623051F49FB7F8943C91822F6A
:10026000809583238C93E8812E2BEFCF8FB7F89462
:10027000EC912E2B2C938FBFEACF8093F20291E06A
:100280009093F30261E081110C9401018DE0FCCFA9
:100290004F925F926F927F928F929F92AF92BF9296
:1002A000CF92DF92EF92FF920F931F93CF93DF9342
:1002B00000D000D01F92CDB7DEB78C012A013B01E0
:1002C000809100018430C9F08F3F09F47FC00F9006
:1002D0000F900F900F900F90DF91CF911F910F9182
:1002E000FF90EF90DF90CF90BF90AF909F908F9056
:1002F0007F906F905F904F900895E0E9F0E08491D7
:100300008D8387FDE4CF61E084E00E9401018D814F
:10031000882321F09D81923009F05CC14801B12C05
:10032000A12C60E072E18AE790E0A50198010E94AB
:100330005D0D29833A834B835C8369017A0181E0F7
:10034000C81AD108E108F1089FEFC916D104E104E9
:10035000F10409F00CF413C160E472E48FE090E062
:10036000A50198010E945D0D69017A0181E0C81A1A
:10037000D108E108F1089D81923009F098C08FEF13
:10038000C816D104E104F10409F00CF4DDC160E900
:1003900070ED83E090E0A50198010E945D0D690178
:1003A0007A0191E0C91AD108E108F1088FEFC81667
:1003B000D104E104F10411F00CF0A3C183E09091A9
:1003C000B100987F892B8093B100E1C084E08093D5
:1003D0000001E0E9F0E094919D839F3F09F477CF1D
:1003E000913029F158F0923009F43FC08D8187FD9A
:1003F0006ECF61E084E00E9401018CCF14BC15BC7B
:1004000084B5826084BD85B5816085BDEFE9F0E08B
:10041000E491F0E0EE0FFF1FEA57FF4F85919491B2
:10042000E3EBF0E0E491E0933F011D826CCF10928A
:10043000800010928100809181008860809381000B
:1004400080918100816080938100EFE9F0E0E49188
:10045000F0E0EE0FFF1FEA57FF4F85919491E3EB19
:10046000F0E0E491E0933E014ECF1092B000109284
:10047000B1008091B00082608093B0008091B100A3
:1004800081608093B100EFE9F0E0E491F0E0EE0FDD
:10049000FF1FEA57FF4F8591949190933D01809300
:1004A0003C01E3EBF0E0E491E0933B012CCF9FEFC4
:1004B000C916D104E104F10409F00CF489C068E420
:1004C00078EE81E090E0A50198010E945D0D690140
:1004D0007A0181E0C81AD108E108F1089D819923C9
:1004E00009F428C19FEFC916D104E104F10409F011
:1004F0000CF41EC162E17AE780E090E0A50194016E
:100500000E945D0D69017A0181E0C81AD108E108F5
:10051000F1089D81992309F4EBC08FEFC816D1042F
:10052000E104F10411F008F0BFC086E048CF64E2B6
:1005300074EF80E090E0A50194010E945D0D6901D7
:100540007A0181E0C81AD108E108F10885E09FEF3F
:10055000C916D104E104F10409F008F430CF62E1D6
:100560007AE780E090E0A50194010E945D0D6901A9
:100570007A0191E0C91AD108E108F108CECF81E0F3
:100580009D8191111CCF95B5987F892B85BD2FEF4B
:100590003FEFA901411451046104710409F043C003
:1005A0009D81913009F45EC0923009F46DC09111C3
:1005B0008ECEC7BC209348013093490140934A0135
:1005C00050934B0180916E00826080936E007FCECD
:1005D00082E0D6CFB12CA12C60E072E18AE790E0F6
:1005E000A50198010E945D0D69017A0181E0C81A98
:1005F000D108E108F108C114D10491E0E906F10441
:1006000004F591E08D81813011F680918100887F21
:10061000892B809381002FEF3FEFA90141145104F2
:1006200061047104F9F0D801AA0FBB1FA301920164
:100630000E94F90C28EE33E040E050E00E94D70C15
:10064000AFCF68E478EE81E090E0A50198010E94C8
:100650005D0D69017A0181E0C81AD108E108F1084D
:1006600093E0D0CFD0928900C092880020934401BB
:1006700030934501409346015093470180916F00AC
:10068000826080936F0023CEC092B300209340011C
:100690003093410140934201509343018091700097
:1006A00082608093700013CEC980DA80EB80FC807A
:1006B0009AE0F594E794D794C7949A95D1F791E08E
:1006C000C91AD108E108F10887E079CEC980DA803B
:1006D000EB80FC808AE0F594E794D794C7948A95E0
:1006E000D1F791E0C91AD108E108F10885E04BCFB4
:1006F0008FEFC816D104E104F10409F038F784E063
:1007000042CF68E478EE81E090E0A50198010E9474
:100710005D0D69017A0191E0C91AD108E108F1087B
:100720008FEFC816D104E104F10411F00CF0FFCEF4
:1007300084E045CE8FEFC816D104E104F10411F036
:100740000CF0D8CE83E01FCF82E039CE3FB7F894CB
:100750008091370190913801A0913901B0913A010F
:1007600026B5A89B05C02F3F19F00196A11DB11D0C
:100770003FBFBA2FA92F982F8827BC01CD01620F48
:10078000711D811D911D42E0660F771F881F991F03
:100790004A95D1F708958F929F92AF92BF92CF92D0
:1007A000DF92EF92FF926B017C010E94A6034B0146
:1007B0005C01C114D104E104F104B9F00E94A60364
:1007C000681979098A099B09683E7340810591057A
:1007D00080F321E0C21AD108E108F10888EE880E02
:1007E00083E0981EA11CB11CE4CFFF90EF90DF9036
:1007F000CF90BF90AF909F908F90089590910001FF
:1008000089130BC0E0E9F0E0E4919FEF90930001C1
:10081000E13049F028F0E23061F060E00C94D30060
:1008200010926E00FACF90916F009D7F90936F00B1
:10083000F4CF909170009D7F9093700091E0909321
:10084000B0009091B100987F94609093B1001092A5
:10085000B300E3CFAF92BF92CF92DF92EF92FF92BD
:100860000F931F93CF93DF936C017B018B01040FD8
:10087000151FEB015E01AE18BF08C017D10759F074
:100880006991D601ED91FC910190F081E02DC601B6
:100890000995892B79F7C501DF91CF911F910F91B0
:1008A000FF90EF90DF90CF90BF90AF900895FC0144
:1008B000538D448D252F30E0842F90E0821B930BC5
:1008C000541710F0CF96089501970895FC01918D6B
:1008D000828D981761F0A28DAE0FBF2FB11D5D966E
:1008E0008C91928D9F5F9F73928F90E008958FEF10
:1008F0009FEF0895FC01918D828D981731F0828DC4
:10090000E80FF11D858D90E008958FEF9FEF08951A
:10091000FC01918D228D892F90E0805C9F4F821B7E
:1009200091098F73992708958CE491E00E948804BF
:1009300021E0892B09F420E0822F089580E090E0E7
:10094000892B29F00E94940481110C9400000895D1
:10095000FC01A48DA80FB92FB11DA35ABF4F2C9134
:10096000848D90E001968F739927848FA689B7892B
:100970002C93A089B1898C91837080648C93938D22
:10098000848D981306C00288F389E02D80818F7DC5
:1009900080830895EF92FF920F931F93CF93DF937D
:1009A000EC0181E0888F9B8D8C8D98131AC0E889AB
:1009B000F989808185FF15C09FB7F894EE89FF897A
:1009C0006083E889F98980818370806480839FBF18
:1009D00081E090E0DF91CF911F910F91FF90EF9018
:1009E0000895F62E0B8D10E00F5F1F4F0F73112728
:1009F000E02E8C8D8E110CC00FB607FCFACFE88963
:100A0000F989808185FFF5CFCE010E94A804F1CF3E
:100A1000EB8DEC0FFD2FF11DE35AFF4FF0829FB7D6
:100A2000F8940B8FEA89FB8980818062CFCFCF93C6
:100A3000DF93EC01888D8823B9F0AA89BB89E88906
:100A4000F9898C9185FD03C0808186FD0DC00FB6AC
:100A500007FCF7CF8C9185FFF2CF808185FFEDCF2A
:100A6000CE010E94A804E9CFDF91CF910895F894B8
:100A700082E08093B0008093B10084E68093B3005D
:100A80008093B4001092B20084E080937000809153
:100A9000E901833011F41092E901789460E08091CB
:100AA000EA010C9401011F920F920FB60F921124CC
:100AB0002F933F938F939F93AF93BF938091330175
:100AC00090913401A0913501B091360130913201FD
:100AD00023E0230F2D3758F50196A11DB11D20935A
:100AE00032018093330190933401A0933501B09388
:100AF00036018091370190913801A0913901B09170
:100B00003A010196A11DB11D8093370190933801E0
:100B1000A0933901B0933A01BF91AF919F918F910A
:100B20003F912F910F900FBE0F901F90189526E8C0
:100B3000230F0296A11DB11DD2CF1F920F920FB6A7
:100B40000F9211242F933F934F935F936F937F9353
:100B50008F939F93AF93BF93EF93FF938091400147
:100B600090914101A0914201B0914301892B8A2BC0
:100B70008B2BD1F190913B01E0913C01F0913D0133
:100B80008081892780838091400190914101A091CB
:100B90004201B0914301181619061A061B069CF46F
:100BA0008091400190914101A0914201B091430197
:100BB0000197A109B1098093400190934101A0934D
:100BC0004201B0934301FF91EF91BF91AF919F918B
:100BD0008F917F916F915F914F913F912F910F90E6
:100BE0000FBE0F901F901895809100010E94FE0388
:100BF000EACF1F920F920FB60F9211242F933F93BB
:100C00004F935F936F937F938F939F93AF93BF9314
:100C1000EF93FF938CE491E00E94A804FF91EF9181
:100C2000BF91AF919F918F917F916F915F914F9104
:100C30003F912F910F900FBE0F901F9018951F920C
:100C40000F920FB60F9211242F938F939F93EF93D0
:100C5000FF93E0915C01F0915D018081E091620180
:100C6000F091630182FD1BC09081809165018F5FCF
:100C70008F7320916601821741F0E0916501F0E0E9
:100C8000E45BFE4F958F80936501FF91EF919F91FB
:100C90008F912F910F900FBE0F901F90189580810C
:100CA000F4CF1F920F920FB60F9211242F933F9300
:100CB0004F935F936F937F938F939F93AF93BF9364
:100CC000EF93FF93E091EB01F091EC019081809123
:100CD000ED0198232091EE013091EF012F3F320773
:100CE00031F02F5F3F4F3093EF012093EE01809161
:100CF000E901811135C0911116C02091EE013091AA
:100D0000EF012536310558F01092F0013093F301D0
:100D10002093F20181E08093F1018093E901109228
:100D2000EF011092EE018091F302882341F080914F
:100D3000F202911161C061E0811161C02D9AFF91B1
:100D4000EF91BF91AF919F918F917F916F915F9143
:100D50004F913F912F910F900FBE0F901F901895BC
:100D60008091E9018130A1F49923E9F2E091F10148
:100D70008E0F8093F101F0E0EE0FFF1FE751FE4F61
:100D80002091EE013091EF013287218782E0C5CFBB
:100D90008091E901823039F5911119C0E091F1019A
:100DA00081E0E43620F08093F00183E0B6CF8E0F2F
:100DB0008093F101F0E0EE0FFF1FE751FE4F20910D
:100DC000EE013091EF013287218781E0A6CF20919B
:100DD000EE013091EF012536310508F4A4CF83E010
:100DE0008093E901A0CF8091E901833009F09BCF86
:100DF000992309F494CF97CF882321F060E00E94D3
:100E0000D3009DCF2D989BCFCF93DF93ECE4F1E0FF
:100E10001382128288EE93E0A0E0B0E08483958391
:100E2000A683B78383E291E09183808385EC90E091
:100E30009587848784EC90E09787868780EC90E0A4
:100E4000918B808B81EC90E0938B828B82EC90E095
:100E5000958B848B86EC90E0978B868B118E128E0F
:100E6000138E148EC9EED1E0D0930403C093030314
:100E700080E00E948D00E2EFF2E010821182D093B8
:100E8000E602C093E50288E00E948D00D093CA027A
:100E9000C093C90288E0DF91CF910C948D007894C3
:100EA00084B5826084BD84B5816084BD85B582606F
:100EB00085BD85B5816085BD80916E008160809320
:100EC0006E00109281008091810082608093810089
:100ED0008091810081608093810080918000816099
:100EE000809380008091B10084608093B1008091F4
:100EF000B00081608093B00080917A00846080931C
:100F00007A0080917A00826080937A0080917A00E2
:100F1000816080937A0080917A00806880937A0063
:100F20001092C100E0915C01F0915D0182E080834C
:100F3000E0915801F09159011082E0915A01F0912D
:100F40005B018FEC808310926401E0916001F0916D
:100F5000610186E08083E0915E01F0915F01808114
:100F600080618083E0915E01F0915F018081886003
:100F70008083E0915E01F0915F01808180688083D1
:100F8000E0915E01F0915F0180818F7D808361E05F
:100F90008DE00E94010161E08CE00E94010161E0AE
:100FA0008BE00E94010162E087E00E94010161E0A4
:100FB00082E00E94010161E084E00E94010186ED6F
:100FC00092E00E9437058091F2020E943D018AEB77
:100FD00092E00E9437058091F2020E943D01CFE02D
:100FE000D1E001E011E038EEA32E33E0B32E699199
:100FF0007991C5010E94490D6B01770FEE08FF083A
:10100000B701A601F801819191918F010E944801D9
:10101000C701B6010E94DE0B26E636E646EA5FE32C
:101020000E94190C0E94130D072E000C880B990BBF
:101030000E94CB0384E00E94FE03F1E0CF31DF0782
:10104000B1F6C9E7D0E006EB10E092EAE92E90E0B5
:10105000F92E20E0C22E20E0D22EFE018491F8016C
:10106000A490F701B490BB2011F181110E94AA0055
:10107000EB2DF0E0EE0FFF1FEF56FF4FA591B4915F
:101080008C91A822A1F060E08DE00E94D30082E064
:101090000E94FE0384E00E94FE03C114D104E9F221
:1010A0000E9494048823C9F20E940000D6CF61E018
:1010B0008DE00E94D3004CE251E060E070E08AE4F1
:1010C00091E00E94480164EF71E080E090E00E94AE
:1010D000CB034CE251E060E070E08AE491E00E94D2
:1010E000480164EF71E080E090E00E94CB034CE2A5
:1010F00051E060E070E08DE591E00E94480164EF0E
:1011000071E080E090E00E94CB034CE251E060E0AF
:1011100070E088E891E00E94480164EF71E080E0AF
:1011200090E00E94CB034CE251E060E070E088E880
:1011300091E00E94480164EF71E080E090E00E943D
:10114000CB034CE251E060E070E08DE591E00E945D
:10115000480164EF71E080E090E00E94CB034CE234
:1011600051E060E070E08AE491E00E94480164EFA1
:1011700071E080E090E00E94CB034CE251E060E03F
:1011800070E086E291E00E94480164EF71E080E047
:1011900090E00E94CB034CE251E060E070E086E01A
:1011A00091E00E94480164EF71E080E090E00E94CD
:1011B000CB034CE251E060E070E086E091E00E94F9
:1011C000480164EF71E080E090E00E94CB034CE2C4
:1011D00051E060E070E086E291E00E94480164EF37
:1011E00071E080E090E00E94CB034CE251E060E0CF
:1011F00070E08AE491E00E94480164EF71E080E0D1
:1012000090E00E94CB034CE251E060E070E08AE4A1
:1012100091E00E94480164EF71E080E090E00E945C
:10122000CB034AEF50E060E070E086E291E00E947C
:1012300048016CE271E080E090E00E94CB034AEF4D
:1012400050E060E070E086E291E00E94480168EEC4
:1012500073E080E090E00E94CB0360E08DE00E94AC
:10126000D30061E08DE00E94D3004CE251E060E0E9
:1012700070E08AE491E00E94480164EF71E080E050
:1012800090E00E94CB034CE251E060E070E08AE421
:1012900091E00E94480164EF71E080E090E00E94DC
:1012A000CB034CE251E060E070E08DE591E00E94FC
:1012B000480164EF71E080E090E00E94CB034CE2D3
:1012C00051E060E070E088E891E00E94480164EF3E
:1012D00071E080E090E00E94CB034CE251E060E0DE
:1012E00070E088E891E00E94480164EF71E080E0DE
:1012F00090E00E94CB034CE251E060E070E08DE5AD
:1013000091E00E94480164EF71E080E090E00E946B
:10131000CB034CE251E060E070E08AE491E00E948F
:10132000480164EF71E080E090E00E94CB034CE262
:1013300051E060E070E086E291E00E94480164EFD5
:1013400071E080E090E00E94CB034CE251E060E06D
:1013500070E086E091E00E94480164EF71E080E077
:1013600090E00E94CB034CE251E060E070E086E048
:1013700091E00E94480164EF71E080E090E00E94FB
:10138000CB034CE251E060E070E086E291E00E9425
:10139000480164EF71E080E090E00E94CB034CE2F2
:1013A00051E060E070E08AE491E00E94480164EF5F
:1013B00071E080E090E00E94CB034CE251E060E0FD
:1013C00070E086E291E00E94480164EF71E080E005
:1013D00090E00E94CB034AEF50E060E070E086E0CE
:1013E00091E00E9448016CE271E080E090E00E9490
:1013F000CB034AEF50E060E070E086E091E00E94AD
:10140000480168EE73E080E090E00E94CB0360E06A
:101410008DE00E94D30061E08DE00E94D3004CE299
:1014200051E060E070E086E291E00E94480164EFE4
:1014300071E080E090E00E94CB034CE251E060E07C
:1014400070E086E291E00E94480164EF71E080E084
:1014500090E00E94CB034CE251E060E070E08AE44F
:1014600091E00E94480164EF71E080E090E00E940A
:10147000CB034CE251E060E070E086E091E00E9436
:10148000480164EF71E080E090E00E94CB034CE201
:1014900051E060E070E086E291E00E94480164EF74
:1014A00071E080E090E00E94CB0348EC50E060E007
:1014B00070E08AE491E00E9448016AEF70E080E009
:1014C00090E00E94CB0348EC50E060E070E08DE5D6
:1014D00091E00E9448016AEF70E080E090E00E9495
:1014E000CB034CE251E060E070E08AE491E00E94BE
:1014F000480164EF71E080E090E00E94CB034CE291
:1015000051E060E070E086E091E00E94480164EF05
:1015100071E080E090E00E94CB034CE251E060E09B
:1015200070E086E291E00E94480164EF71E080E0A3
:1015300090E00E94CB0348EC50E060E070E08AE469
:1015400091E00E9448016AEF70E080E090E00E9424
:10155000CB0348EC50E060E070E08DE591E00E9444
:1015600048016AEF70E080E090E00E94CB034CE21B
:1015700051E060E070E08AE491E00E9448016AEF87
:1015800070E080E090E00E94CB0348EC50E060E027
:1015900070E086E291E00E94480164EF71E080E033
:1015A00090E00E94CB034CE251E060E070E086E006
:1015B00091E00E94480164EF71E080E090E00E94B9
:1015C000CB034CE251E060E070E086E291E00E94E3
:1015D000480164EF71E080E090E00E94CB0344EFAB
:1015E00051E060E070E084EC90E00E94480168EE19
:1015F00073E080E090E00E94CB0360E08DE00E9409
:10160000D30061E08DE00E94D3004CE251E060E045
:1016100070E08AE491E00E94480164EF71E080E0AC
:1016200090E00E94CB034CE251E060E070E08AE47D
:1016300091E00E94480164EF71E080E090E00E9438
:10164000CB034CE251E060E070E08DE591E00E9458
:10165000480164EF71E080E090E00E94CB034CE22F
:1016600051E060E070E088E891E00E94480164EF9A
:1016700071E080E090E00E94CB034CE251E060E03A
:1016800070E088E891E00E94480164EF71E080E03A
:1016900090E00E94CB034CE251E060E070E08DE509
:1016A00091E00E94480164EF71E080E090E00E94C8
:1016B000CB034CE251E060E070E08AE491E00E94EC
:1016C000480164EF71E080E090E00E94CB034CE2BF
:1016D00051E060E070E086E291E00E94480164EF32
:1016E00071E080E090E00E94CB034CE251E060E0CA
:1016F00070E086E091E00E94480164EF71E080E0D4
:1017000090E00E94CB034CE251E060E070E086E0A4
:1017100091E00E94480164EF71E080E090E00E9457
:10172000CB034CE251E060E070E086E291E00E9481
:10173000480164EF71E080E090E00E94CB034CE24E
:1017400051E060E070E08AE491E00E94480164EFBB
:1017500071E080E090E00E94CB034CE251E060E059
:1017600070E086E291E00E94480164EF71E080E061
:1017700090E00E94CB034AEF50E060E070E086E02A
:1017800091E00E9448016CE271E080E090E00E94EC
:10179000CB034AEF50E060E070E086E091E00E9409
:1017A000480168EE73E080E090E00E94CB0360E0C7
:1017B0008DE00E94D30071CCE89409C097FB3EF401
:1017C00090958095709561957F4F8F4F9F4F99238E
:1017D000A9F0F92F96E9BB279395F695879577950C
:1017E0006795B795F111F8CFFAF4BB0F11F460FFCC
:1017F0001BC06F5F7F4F8F4F9F4F16C0882311F024
:1018000096E911C0772321F09EE8872F762F05C037
:10181000662371F096E8862F70E060E02AF09A95D2
:10182000660F771F881FDAF7880F9695879597F9C7
:1018300008950E942C0C0C949D0C0E948F0C38F083
:101840000E94960C20F0952311F00C94860C0C94B9
:101850008C0C11240C94D10C0E94AE0C70F3959F4B
:10186000C1F3950F50E0551F629FF001729FBB2797
:10187000F00DB11D639FAA27F00DB11DAA1F649F33
:101880006627B00DA11D661F829F2227B00DA11DE6
:10189000621F739FB00DA11D621F839FA00D611D6C
:1018A000221F749F3327A00D611D231F849F600D8D
:1018B000211D822F762F6A2F11249F5750409AF0B6
:1018C000F1F088234AF0EE0FFF1FBB1F661F771F42
:1018D000881F91505040A9F79E3F510580F00C940D
:1018E000860C0C94D10C5F3FE4F3983ED4F38695BC
:1018F00077956795B795F795E7959F5FC1F7FE2BAD
:10190000880F911D9695879597F9089597F99F6788
:1019100080E870E060E008959FEF80EC0895002477
:101920000A941616170618060906089500240A9444
:1019300012161306140605060895092E0394000CCA
:1019400011F4882352F0BB0F40F4BF2B11F460FF59
:1019500004C06F5F7F4F8F4F9F4F089557FD905882
:10196000440F551F59F05F3F71F04795880F97FB63
:10197000991F61F09F3F79F087950895121613061D
:101980001406551FF2CF4695F1DF08C0161617064C
:101990001806991FF1CF8695710561050894089581
:1019A000E894BB2766277727CB0197F90895A1E232
:1019B0001A2EAA1BBB1BFD010DC0AA1FBB1FEE1FC9
:1019C000FF1FA217B307E407F50720F0A21BB30B14
:1019D000E40BF50B661F771F881F991F1A9469F790
:1019E00060957095809590959B01AC01BD01CF01EC
:1019F00008950E94040DA59F900DB49F900DA49F83
:101A0000800D911D11240895A29FB001B39FC001C4
:101A1000A39F700D811D1124911DB29F700D811D1A
:101A20001124911D08950E941A0D6894B1110C940F
:101A3000D10C08950E94B60C88F09F5798F0B92FEA
:101A40009927B751B0F0E1F0660F771F881F991FF3
:101A50001AF0BA95C9F714C0B13091F00E94D00CB9
:101A6000B1E008950C94D00C672F782F8827B85FC9
:101A700039F0B93FCCF3869577956795B395D9F74B
:101A80003EF490958095709561957F4F8F4F9F4F55
:101A9000089597FB072E16F4009407D077FD09D020
:101AA0000E947C0D07FC05D03EF4909581959F4FD8
:101AB0000895709561957F4F0895052E97FB1EF44C
:101AC00000940E94740D57FD07D00E94D70C07FCAC
:101AD00003D04EF40C94740D50954095309521959B
:101AE0003F4F4F4F5F4F089590958095709561954A
:101AF0007F4F8F4F9F4F0895AA1BBB1B51E107C01B
:101B0000AA1FBB1FA617B70710F0A61BB70B881F8D
:101B1000991F5A95A9F780959095BC01CD0108951C
:101B2000EE0FFF1F0590F491E02D0994F894FFCF7C
:101B3000FF0601C400C400DC000000F70006010439
:101B40000008000800040004000400040004000071
:101B5000000000CA042A0457041705880466047AA2
:021B600004007F
:00000001FF
